:1000000000000320054500000D8300001D150000C1
:100010001D1500001D1500001D1500001D15000018
:100020001D1500001D1500001D1500001D15000008
:100030001D1500001D1500001D1500001D150000F8
:100040001D1500001D1500001D1500001D150000E8
:100050001D1500001D1500001D1500001D150000D8
:100060001D1500001D1500001D1500001D150000C8
:100070001D1500001D1500001D1500001D150000B8
:100080001D1500001D1500001D1500001D150000A8
:100090001D1500001D1500001D1500001D15000098
:1000A000417700001D150000398D00001D1500006E
:1000B0001D1500001D1500001D150000DD58000075
:1000C000DD5800001D1500001D1500001D15000065
:1000D0001D1500007D5300007D5300001D1500001C
:1000E0001D1500001D150000F59000001D150000F5
:1000F0001D1500001D1500001D1500001D15000038
:100100001D1500001D1500001D1500001D15000027
:100110001D1500001D1500001D1500001D15000017
:100120001D1500001D1500001D1500001D15000007
:100130001D1500001D1500001D1500001D150000F7
:100140001D1500001D1500001D1500001D150000E7
:100150001D1500001D1500001D1500001D150000D7
:100160001D1500001D1500001D1500001D150000C7
:100170001D1500001D1500001D1500001D150000B7
:100180001D1500001D1500001D1500001D150000A7
:080190001D1500001D15000003
:10040000FFFFFFFFFFFFFFFFFFFFFFFF7EFFFFFF7D
:1004100010B5054C237833B9044B13B10448AFF33E
:1004200000800123237010BDF000002000000000B8
:10043000F4E1000008B5064B1BB106480649AFF3CE
:1004400000800648036813B1054B03B1984708BD07
:1004500000000000F4E10000F4000020F0000020A3
:1004600000000000154B002B08BF134B9D46A3F561
:10047000803A00218B460F461348144A121A0DF099
:10048000EAF90F4B002B00D098470E4B002B00D001
:1004900098470020002104000D000D48002802D0DC
:1004A0000C48AFF300800DF0A7F92000290003F0FD
:1004B0004BFF0DF08DF900BF000008000000032085
:1004C0000000000000000000F0000020783602204C
:1004D000000000000000000081F0004102E000BFC9
:1004E00083F0004330B54FEA41044FEA430594EAF4
:1004F000050F08BF90EA020F1FBF54EA000C55EA2F
:10050000020C7FEA645C7FEA655C00F0E2804FEAFF
:100510005454D4EB5555B8BF6D420CDD2C4480EAE1
:10052000020281EA030382EA000083EA010180EA11
:10053000020281EA0303362D88BF30BD11F0004F5F
:100540004FEA01314FF4801C4CEA113102D0404295
:1005500061EB410113F0004F4FEA03334CEA1333D0
:1005600002D0524263EB430394EA050F00F0A780E8
:10057000A4F10104D5F1200E0DDB02FA0EFC22FAE3
:1005800005F2801841F1000103FA0EF2801843FAD7
:1005900005F359410EE0A5F120050EF1200E012AC8
:1005A00003FA0EFC28BF4CF0020C43FA05F3C01806
:1005B00051EBE37101F0004507D54FF0000EDCF17F
:1005C000000C7EEB00006EEB0101B1F5801F1BD328
:1005D000B1F5001F0CD349085FEA30004FEA3C0C2C
:1005E00004F101044FEA445212F5800F80F09A8022
:1005F000BCF1004F08BF5FEA500C50F1000041EB26
:10060000045141EA050130BD5FEA4C0C404141EB29
:10061000010111F4801FA4F10104E9D191F0000F50
:1006200004BF01460020B1FA81F308BF2033A3F1D3
:100630000B03B3F120020CDA0C3208DD02F1140CCA
:10064000C2F10C0201FA0CF021FA02F10CE002F105
:100650001402D8BFC2F1200C01FA02F120FA0CFCFE
:10066000DCBF41EA0C019040E41AA2BF01EB045147
:10067000294330BD6FEA04041F3C1CDA0C340EDC45
:1006800004F11404C4F1200220FA04F001FA02F388
:1006900040EA030021FA04F345EA030130BDC4F146
:1006A0000C04C4F1200220FA02F001FA04F340EA3B
:1006B0000300294630BD21FA04F0294630BD94F0EC
:1006C000000F83F4801306BF81F480110134013DD3
:1006D0004EE77FEA645C18BF7FEA655C29D094EA44
:1006E000050F08BF90EA020F05D054EA000C04BFC2
:1006F0001946104630BD91EA030F1EBF00210020AD
:1007000030BD5FEA545C05D14000494128BF41F04B
:10071000004130BD14F580043CBF01F5801130BDAF
:1007200001F0004545F0FE4141F470014FF000003A
:1007300030BD7FEA645C1ABF194610467FEA655CEB
:100740001CBF0B46024650EA013406BF52EA03358D
:1007500091EA030F41F4002130BD00BF90F0000F7B
:1007600004BF0021704730B54FF4806404F13204B7
:100770004FF000054FF0000150E700BF90F0000F70
:1007800004BF0021704730B54FF4806404F1320497
:1007900010F0004548BF40424FF000013EE700BF67
:1007A00042004FEAE2014FEA31014FEA02701FBFF7
:1007B00012F07F4393F07F4F81F06051704792F0C9
:1007C000000F14BF93F07F4F704730B54FF4607443
:1007D00001F0004521F0004120E700BF50EA01028E
:1007E00008BF704730B54FF000050AE050EA01023B
:1007F00008BF704730B511F0004502D5404261EBAB
:1008000041014FF4806404F132045FEA915C3FF4EB
:10081000DCAE4FF003025FEADC0C18BF03325FEA84
:10082000DC0C18BF033202EBDC02C2F1200300FA39
:1008300003FC20FA02F001FA03FE40EA0E0021FA5E
:1008400002F11444C1E600BF70B54FF0FF0C4CF448
:10085000E06C1CEA11541DBF1CEA135594EA0C0FFE
:1008600095EA0C0F00F0DEF82C4481EA030621EA39
:100870004C5123EA4C5350EA013518BF52EA033574
:1008800041F4801143F4801338D0A0FB02CE4FF026
:100890000005E1FB02E506F00042E0FB03E54FF056
:1008A0000006E1FB03569CF0000F18BF4EF0010E4E
:1008B000A4F1FF04B6F5007F64F5407404D25FEA4A
:1008C0004E0E6D4146EB060642EAC62141EA5551FD
:1008D0004FEAC52040EA5E504FEACE2EB4F1FD0C3F
:1008E00088BFBCF5E06F1ED8BEF1004F08BF5FEABD
:1008F000500E50F1000041EB045170BD06F000466F
:1009000046EA010140EA020081EA0301B4EB5C041B
:10091000C2BFD4EB0C0541EA045170BD41F4801113
:100920004FF0000E013C00F3AB8014F1360FDEBF38
:10093000002001F0004170BDC4F10004203C35DA14
:100940000C341BDC04F11404C4F1200500FA05F397
:1009500020FA04F001FA05F240EA020001F0004238
:1009600021F0004110EBD37021FA04F642EB0601AE
:100970005EEA430E08BF20EAD37070BDC4F10C04D8
:10098000C4F1200500FA04F320FA05F001FA04F29C
:1009900040EA020001F0004110EBD37041F1000188
:1009A0005EEA430E08BF20EAD37070BDC4F1200593
:1009B00000FA05F24EEA020E20FA04F301FA05F2FB
:1009C00043EA020321FA04F001F0004121FA04F2A3
:1009D00020EA020000EBD3705EEA430E08BF20EA73
:1009E000D37070BD94F0000F0FD101F000464000AD
:1009F00041EB010111F4801F08BF013CF7D041EA2F
:100A0000060195F0000F18BF704703F00046520032
:100A100043EB030313F4801F08BF013DF7D043EA03
:100A20000603704794EA0C0F0CEA135518BF95EAB9
:100A30000C0F0CD050EA410618BF52EA4306D1D140
:100A400081EA030101F000414FF0000070BD50EA5F
:100A5000410606BF1046194652EA430619D094EAE9
:100A60000C0F02D150EA013613D195EA0C0F05D1D3
:100A700052EA03361CBF104619460AD181EA030127
:100A800001F0004141F0FE4141F470014FF00000DF
:100A900070BD41F0FE4141F4780170BD70B54FF07A
:100AA000FF0C4CF4E06C1CEA11541DBF1CEA1355FA
:100AB00094EA0C0F95EA0C0F00F0A7F8A4EB0504DC
:100AC00081EA030E52EA03354FEA013100F08880D3
:100AD0004FEA03334FF0805545EA131343EA12639C
:100AE0004FEA022245EA111545EA10654FEA002651
:100AF0000EF000419D4208BF964244F1FD0404F50A
:100B0000407402D25B084FEA3202B61A65EB030565
:100B10005B084FEA32024FF480104FF4002CB6EB22
:100B2000020E75EB030E22BFB61A754640EA0C00A2
:100B30005B084FEA3202B6EB020E75EB030E22BFE2
:100B4000B61A754640EA5C005B084FEA3202B6EB23
:100B5000020E75EB030E22BFB61A754640EA9C00E2
:100B60005B084FEA3202B6EB020E75EB030E22BFB2
:100B7000B61A754640EADC0055EA060E18D04FEA70
:100B8000051545EA16754FEA06164FEAC30343EA10
:100B900052734FEAC2025FEA1C1CC0D111F4801FDD
:100BA0000BD141EA00014FF000004FF0004CB6E7D6
:100BB00011F4801F04BF01430020B4F1FD0C88BF75
:100BC000BCF5E06F3FF6AFAEB5EB030C04BFB6EB80
:100BD000020C5FEA500C50F1000041EB045170BD73
:100BE0000EF0004E4EEA113114EB5C04C2BFD4EBA0
:100BF0000C0541EA045170BD41F480114FF0000E24
:100C0000013C90E645EA060E8DE60CEA135594EA9F
:100C10000C0F08BF95EA0C0F3FF43BAF94EA0C0FA2
:100C20000AD150EA01347FF434AF95EA0C0F7FF417
:100C300025AF104619462CE795EA0C0F06D152EA6B
:100C400003353FF4FDAE1046194622E750EA41064F
:100C500018BF52EA43067FF4C5AE50EA41047FF460
:100C60000DAF52EA43057FF4EBAE12E74FF0FF3CC5
:100C700006E000BF4FF0010C02E000BF4FF0010C96
:100C80004DF804CD4FEA410C7FEA6C5C4FEA430C0F
:100C900018BF7FEA6C5C1BD001B050EA410C0CBF5E
:100CA00052EA430C91EA030F02BF90EA020F0020C0
:100CB000704710F1000F91EA030F58BF994208BF27
:100CC00090422CBFD8176FEAE37040F001007047E4
:100CD0004FEA410C7FEA6C5C02D150EA013C07D13B
:100CE0004FEA430C7FEA6C5CD6D152EA033CD3D086
:100CF0005DF8040B704700BF8446104662468C4680
:100D00001946634600E000BF01B5FFF7B7FF0028B2
:100D100048BF10F1000F01BD4DF808EDFFF7F4FFDB
:100D20000CBF012000205DF808FB00BF4DF808ED66
:100D3000FFF7EAFF34BF012000205DF808FB00BF89
:100D40004DF808EDFFF7E0FF94BF012000205DF8AB
:100D500008FB00BF4DF808EDFFF7CEFF94BF012060
:100D600000205DF808FB00BF4DF808EDFFF7C4FF59
:100D700034BF012000205DF808FB00BF4FEA4102AC
:100D800012F5001215D211D56FF47873B3EB6252DD
:100D900012D94FEAC12343F0004343EA505311F004
:100DA000004F23FA02F018BF404270474FF0000096
:100DB000704750EA013005D111F0004008BF6FF0D4
:100DC000004070474FF00000704700BF4FEA4102FB
:100DD000B2F1E04324BFB3F5001CDCF1FE5C0DD999
:100DE00001F0004C4FEAC0024CEA5070B2F1004FE3
:100DF00040EB830008BF20F00100704711F0804FE6
:100E000021D113F13872BCBF01F00040704741F4AA
:100E100080114FEA5252C2F11802C2F1200C10FAAE
:100E20000CF320FA02F018BF40F001004FEAC12392
:100E30004FEAD32303FA0CFC40EA0C0023FA02F336
:100E40004FEA4303CCE77FEA625307D150EA01330C
:100E50001EBF4FF0FE4040F44000704701F00040DC
:100E600040F0FE4040F40000704700BF10F8012B36
:100E700011F8013B012A28BF9A42F7D0D01A7047D7
:100E800080B483B000AF78607B6883F311880C373F
:100E9000BD465DF8047B704780B500AF4FF0E0239E
:100EA0001D4AC3F8082D1D4B4CF22052DA811B4B12
:100EB0004DF62812DA81194B4FF4E9721A80184B5B
:100EC00000221A70174B03F5825304334FF0A272BD
:100ED0001A60002000F07CF8124B134A03F582538D
:100EE00004331A600F4B0F4A126822F440214FF46A
:100EF00040220A431A600B490A4B03F5805304331E
:100F00001B6823F440324FF480331A4301F58053B9
:100F100004331A6080BD00BF0000000000200540BF
:100F200000E00740007004400000150180B500AFEC
:100F300007F090F807F048F9F020FFF7A1FF80BD17
:100F400080B400AF214B1B78DBB203F0C003402B11
:100F500017D0802B20D0002B32D11C4B5B79DBB219
:100F600003F04003002B0AD1184B1B78DBB203F0CF
:100F70000403002B01D1032323E0002321E00723F6
:100F80001FE0124B5B78DBB203F00203002B01D1B0
:100F9000012316E0022314E00C4B5B79DBB203F073
:100FA0004003002B0AD1094B5B78DBB203F002034C
:100FB000002B01D1042304E0052302E0062300E016
:100FC00000231846BD465DF8047B7047004006408C
:100FD00090B587B000AF0346FB71FA79AA49134672
:100FE000DB009B1A9B000B441B88BB82BB8A03F06F
:100FF000C003002B20D0A549A44B03F5815318331F
:101000001B6843F4007201F5815318331A60A04A3B
:101010009F4B9B6C23F0807323F4E0639364BB8A43
:1010200003F08003002B07D0994A994BDB6C23F027
:10103000807323F4E063D364964B1B7ADBB203F036
:101040000E01FA7990481346DB009B1A9B0003447B
:101050005B7A994200F082808E4B5B78DBB203F0C2
:101060000103002B16D18B498A4B1B7ADBB2DBB212
:1010700023F00E03D8B2FA79834C1346DB009B1A97
:101080009B0023445B7ADBB202461343DBB2DBB244
:101090000B7263E07F4B1B78DBB203F00103002B84
:1010A00036D07C4B7B4A5278D2B222F00102D2B2C7
:1010B0005A7000BF774B9B79DBB203F00103002B22
:1010C000F8D17449734B1B7ADBB2DBB223F00E0309
:1010D000D8B2FA796C4C1346DB009B1A9B00234470
:1010E0005B7ADBB202461343DBB2DBB20B72694BB5
:1010F000684A5278D2B242F00102D2B25A7000BFAE
:10110000644B9B79DBB203F00103002BF8D025E0A0
:10111000604B604A5278D2B222F00102D2B25A70C9
:101120005C495C4B1B7ADBB2DBB223F00E03D8B216
:10113000FA79554C1346DB009B1A9B0023445B7ADB
:10114000DBB202461343DBB2DBB20B72514B514AA6
:101150005278D2B242F00102D2B25A70FFF7F0FEDA
:101160000346FB82BB8A03F00F037B82FB8A03F0FA
:101170000F01BB8A03F00F02474BC9000A4433F842
:101180001230FB82FB8A062B02D17B8A072B09D007
:10119000FB8A042B02D17B8A032B03D0FA8A7B8A39
:1011A0009A420DD1FA7938491346DB009B1A9B000D
:1011B000CA1807F1080303321068516803C30AE034
:1011C000FB8A03F00F02354B53F8222007F1080386
:1011D0001068516803C3FB8A072B00F2548101A2F7
:1011E00052F823F00512000005120000A5120000BD
:1011F000F9120000F9120000A9130000F313000017
:10120000F3130000234B3A7A1A7000BF214B9B79ED
:10121000DBB203F01003002BF8D01E4B7A7A22F0D9
:101220004002D1B21B4A5278D2B202F04002D2B28E
:101230000A43D2B25A70174BBA7A22F01F02D1B2C7
:10124000144AD278D2B202F01F02D2B20A43D2B20A
:10125000DA70104B7A7B1A73114BFA7B1A700D4BB4
:10126000FA7A1A710B4B3A7B5A71BB8A03F40073FA
:10127000002B08D0074B074A1279D2B242F0400245
:10128000D2B21A7100E1FFE048DE000000700440B5
:101290000090044000400640C8DD0000A4DE0000CD
:1012A000005006409A4B3A7A1A7000BF984B9B79CF
:1012B000DBB203F01003002BF8D0954B7A7A22F0C2
:1012C0004002D1B2924A5278D2B202F04002D2B277
:1012D0000A43D2B25A708F4BFA7B1A70BB8A03F062
:1012E0002003002B07D000BF894B9B79DBB203F0B2
:1012F0000103002BF8D0C7E0854B7A7A22F0400238
:10130000D1B2834A5278D2B202F04002D2B20A433A
:10131000D2B25A707F4BFA7B1A707D4B7A7B1A736C
:10132000FB8A042B06D17A4B3A7A62F07F02D2B262
:101330001A7002E0764B3A7A1A70BB8A03F0800387
:10134000002B07D000BF724B9B79DBB203F0020386
:10135000002BF8D000BF6E4B9B79DBB203F010037B
:10136000002BF8D16A4BBA7A22F01F02D1B2684A38
:10137000D278D2B202F01F02D2B20A43D2B2DA70ED
:10138000634BFA7A1A71BB8A03F40073002B07D0FF
:101390005F4B5F4A1279D2B242F04002D2B21A7168
:1013A0005B4B3A7B5A716FE0594B3A7A1A70584B43
:1013B0007A7A22F04002D1B2554A5278D2B202F083
:1013C0004002D2B20A43D2B25A70524BFA7B1A7020
:1013D0004F4B7A7B1A73BB8A03F08003002B07D034
:1013E00000BF4B4B9B79DBB203F00203002BF8D01C
:1013F0004AE0484BFA7B1A70454B7A7B1A73FB8A9A
:10140000062B06D1424B3A7A62F07F02D2B21A70B2
:1014100002E03F4B3A7A1A703D4B7A7A22F0400252
:10142000D1B23B4A5278D2B202F04002D2B20A4361
:10143000D2B25A70BB8A03F00F03072B14D1344980
:10144000FA7935481346DB009B1A9B0003449B79CD
:101450000B712F49FA7930481346DB009B1A9B0029
:101460000344DB794B7105E0294BFA7A1A71284B5A
:101470003A7B5A7100BF264B9B79DBB203F04003E5
:10148000002BF8D000E000BFFB8A072B36D801A262
:1014900052F823F0B5140000C7140000C714000070
:1014A000B5140000D9140000D9140000D9140000AC
:1014B000EB14000000BF164B9B79DBB203F00C036A
:1014C000002BF8D11AE000BF114B9B79DBB203F07F
:1014D0000C03042BF8D111E000BF0D4B9B79DBB25C
:1014E00003F00C03082BF8D108E000BF084B9B79F0
:1014F000DBB203F00C030C2BF8D100BFFA8ABB8AD5
:1015000003F00F039A427FF431AE1C37BD4690BD05
:10151000004006400050064048DE0000684620F0CB
:1015200007018D4681B400AFFFBEBD4681BC854634
:10153000704700BF0000000080B588B000AF786041
:1015400003F066F807F11403184603F07DF803F082
:101550000FF907F10803184603F01EF9BA897B68F2
:101560001A80FA8A7B685A807A897B68DA803A8B9B
:101570007B689A80BA8A7B681A813A897B685A812B
:10158000FA897B681A823A8A7B685A827A8B7B68EE
:101590009A82BA8B7B68DA827B8B07EE903AB8EE40
:1015A000E77ADFEDA77A67EE277A7B68C3ED0B7ADF
:1015B000FB8907EE903AB8EEE77ADFEDA27A27EEE4
:1015C000277ADFEDA17AC7EE277A7B68C3ED0D7A23
:1015D0003B8A07EE903AB8EEE77ADFED9A7A27EE8B
:1015E000277ADFED997AC7EE277A7B68C3ED0C7A0C
:1015F0007B685B891846FFF7C1F802460B46104628
:10160000194687A3D3E90023FFF71EF902460B46CC
:1016100010461946FFF7DAFB02468C4B1A607B68CE
:101620001B881846FFF7AAF802460B4610461946D3
:101630007BA3D3E90023FFF707F902460B461046C8
:101640001946FFF7C3FB0246814B1A607B689B88F3
:101650001846FFF793F802460B461046194670A34A
:10166000D3E90023FFF7F0F802460B46104619466F
:10167000FFF7ACFB0246774B1A607B68DB881846A5
:10168000FFF77CF802460B461046194664A3D3E9DF
:101690000023FFF7D9F802460B4610461946FFF71C
:1016A00095FB02466C4B1A60684B1B681846FFF7A7
:1016B00077F802460B46104619465BA3D3E9002390
:1016C000FFF734FB0346002B03D07B68634A1A64A0
:1016D00055E05E4B1B681846FFF762F802460B4662
:1016E0001046194652A3D3E90023FFF71FFB034618
:1016F000002B0CD0554BD3ED007AB0EE670A00F00A
:1017000037FAF0EE407A7B68C3ED107A37E04F4B42
:101710001B681846FFF744F802460B461046194668
:1017200045A3D3E90023FFF701FB0346002B0CD0B0
:10173000464BD3ED007AB0EE670A00F0C5F9F0EE43
:10174000407A7B68C3ED107A19E0404B93ED007A44
:10175000DFED437AB4EEE77AF1EE10FA0CD53B4BAD
:10176000D3ED007AB0EE670A00F072FAF0EE407A3C
:101770007B68C3ED107A02E07B683A4A1A64344B06
:101780001B681846FFF70CF802460B461046194630
:1017900025A3D3E90023FFF7C9FA0346002B03D0A2
:1017A0007B682E4A9A6379E0294B1B681846FEF73E
:1017B000F7FF02460B46104619461DA3D3E9002346
:1017C000FFF7B4FA0346002B0CD0214BD3ED007A7F
:1017D000B0EE670A00F0CCF9F0EE407A7B68C3ED1A
:1017E0000E7A5BE01A4B1B681846FEF7D9FF0246DB
:1017F0000B461046194610A3D3E90023FFF796FACB
:101800000346002B30D0124BD3ED007AB0EE670ABE
:1018100000F05AF9F0EE407A7B68C3ED0E7A3DE0B5
:10182000FCA9F1D24D62503F736891ED7C3F0240BC
:101830001F85EB51B85E39405C8FC2F5289C44404F
:101840003333D338333353380000164510010020AA
:1018500014010020180100201C0100200000A040FD
:10186000000082423333EF42914B93ED007ADFED7B
:10187000917AB4EEE77AF1EE10FA0CD58C4BD3EDF9
:10188000007AB0EE670A00F0E3F9F0EE407A7B6888
:10189000C3ED0E7A02E07B68874A9A63874B1B6828
:1018A0001846FEF77DFF02460B46104619467AA3FE
:1018B000D3E90023FFF73AFA0346002B04D07B68F4
:1018C000052283F83D2065E07C4B1B681846FEF737
:1018D00067FF02460B461046194671A3D3E9002361
:1018E000FFF724FA0346002B11D0744BD3ED007A96
:1018F000B0EE670A00F03CF9F0EE407AFCEEE77AD1
:1019000017EE903ADAB27B6883F83D2042E06B4BE9
:101910001B681846FEF744FF02460B461046194660
:1019200061A3D3E90023FFF701FA0346002B11D08E
:10193000624BD3ED007AB0EE670A00F0C5F8F0EE26
:10194000407AFCEEE77A17EE903ADAB27B6883F8D9
:101950003D201FE0594B93ED007ADFED567AB4EE4F
:10196000E77AF1EE10FA11D5544BD3ED007AB0EED0
:10197000670A00F06DF9F0EE407AFCEEE77A17EEB8
:10198000903ADAB27B6883F83D2003E07B687722E7
:1019900083F83D204A4B1B681846FEF701FF0246BC
:1019A0000B46104619463CA3D3E90023FFF7BEF9C6
:1019B0000346002B04D07B68052283F83E2065E0B7
:1019C0003F4B1B681846FEF7EBFE02460B461046DF
:1019D000194633A3D3E90023FFF7A8F90346002BE8
:1019E00011D0374BD3ED007AB0EE670A00F0C0F8A3
:1019F000F0EE407AFCEEE77A17EE903ADAB27B68C6
:101A000083F83E2042E02E4B1B681846FEF7C8FEC6
:101A100002460B461046194623A3D3E90023FFF7DD
:101A200085F90346002B11D0254BD3ED007AB0EE9B
:101A3000670A00F049F8F0EE407AFCEEE77A17EE1C
:101A4000903ADAB27B6883F83E201FE01C4B93ED9E
:101A5000007ADFED187AB4EEE77AF1EE10FA11D5DC
:101A6000174BD3ED007AB0EE670A00F0F1F8F0EE14
:101A7000407AFCEEE77A17EE903ADAB27B6883F8A8
:101A80003E2003E07B68772283F83E202037BD4666
:101A900080BD00BFAFF30080736891ED7C3F0240D2
:101AA0001F85EB51B85E39405C8FC2F5289C4440DD
:101AB00014010020000082423333EF42180100205D
:101AC0001C010020AFF30080B0B584B000AF87EDFB
:101AD000010A97ED017AD7ED017A67EE277AC7ED13
:101AE000037AF868FEF75CFE02460B46104619467C
:101AF00019A3D3E90023FEF7A7FE02460B461446BE
:101B00001D467868FEF74CFE02460B461046194605
:101B100013A3D3E90023FEF797FE02460B462046A7
:101B20002946FEF7DFFC02460B46104619460EA377
:101B3000D3E90023FEF7D6FC02460B4610461946B1
:101B4000FFF744F90346BB60BB6807EE903AB0EE7E
:101B5000670A1037BD46B0BD8257CB9D9960983F4C
:101B6000B9196EC0E787EEBF54742497FFF0454063
:101B7000B0B584B000AF87ED010A7868FEF710FEBB
:101B800002460B461046194629A3D3E90023FEF767
:101B90005BFE02460B4643EC172BB0EE470AF0EE15
:101BA000670A0BF0C9F953EC102B1046194622A313
:101BB000D3E90023FEF748FE02460B4614461D46B5
:101BC0007868FEF7EDFD02460B46104619461CA349
:101BD000D3E90023FEF738FE02460B4643EC172BF1
:101BE000B0EE470AF0EE670A0BF0A6F953EC102BA3
:101BF0001046194614A3D3E90023FEF725FE02463A
:101C00000B4620462946FEF76DFC02460B46104661
:101C10001946FFF7DBF80346FB60FB6807EE903AD6
:101C2000B0EE670A1037BD46B0BD00BFAFF300800D
:101C3000F65CA626C11B823F14AE47E17AD43B4036
:101C40005EBA490C022BE9BF33333333333362C0FE
:101C5000B0B586B000AF87ED010A97ED017AD7EDF8
:101C6000017A67EE277AC7ED057A97ED057AD7ED09
:101C7000017A67EE277AC7ED047A97ED047AD7EDFB
:101C8000017A67EE277AC7ED037AF868FEF788FDD8
:101C900002460B461046194630A3D3E90023FEF74F
:101CA000D3FD02460B4614461D463869FEF778FD03
:101CB00002460B46104619462AA3D3E90023FEF735
:101CC000C3FD02460B4620462946FEF70BFC0246A2
:101CD0000B4614461D467869FEF762FD02460B4628
:101CE0001046194621A3D3E90023FEF7ADFD0246B5
:101CF0000B4620462946FEF7F5FB02460B461446E6
:101D00001D4697ED017ADFED147A67EE277A17EE1C
:101D1000900AFEF745FD02460B4620462946FEF78F
:101D2000E1FB02460B46104619464FF000024FF009
:101D30000003FEF7D7FB02460B4610461946FFF795
:101D400045F80346BB60BB6807EE903AB0EE670A01
:101D50001837BD46B0BD00BF000000001BB4CC2C3E
:101D600086CE023F0572E4DC81956EBFA54929E865
:101D7000F692BE3FAFF3008080B584B000AF02F0B2
:101D800047FC3B1D184602F05FFC7B895B00184650
:101D9000FEF7F4FC02460B46104619460AA3D3E9A7
:101DA0000023FEF751FD02460B4610461946FFF789
:101DB0000DF8034607EE903AB0EE670A1037BD46BD
:101DC00080BD00BFAFF300809881396766660A3F27
:101DD00080B582B000AF0346FB71FB79042B52D86B
:101DE00001A252F823F000BFFD1D0000051E0000F7
:101DF000451E0000751E0000871E0000012001F036
:101E000079FB41E0224B1B69184605F085FB204B0E
:101E10005B6D1846002107F059FA082001F06AFBB3
:101E200000F012FF012000F0F9FF0020002102F075
:101E30000DF9174B1B69184605F06EFB032000F0E7
:101E40009FFD21E0092001F055FB114B5B6918460D
:101E500005F0CCFB0E4B5B6D1846002107F036FAFF
:101E600000F0D0FF00F0F0FE094B5B69184605F06A
:101E7000BDFB09E0072001F03DFB054B1B68184640
:101E800004F086F800E000BF0837BD4680BD00BF03
:101E9000800400200000000090B5ADF5737D00AF18
:101EA0006D4BDB69184604F0BFF9034683F001036C
:101EB000DBB2002B42D0684B5B69184605F088FB0B
:101EC000654B9B68184604F071FE634BDB6818464F
:101ED00005F006FA604B1B68184604F049F85E4BA3
:101EE0001B69184605F0FCFA5B4B5B68184604F06A
:101EF000E9FA01F04DF9594C3B46184600F0BCFF99
:101F00003B4621461A464FF47173084611461A465D
:101F10000BF098FC504B1B69184605F0EFFA4E4B3E
:101F20005B68184604F0DEFA4B4BDB68184605F098
:101F3000C7F9494B1B68184604F00AF8464B9B6AE0
:101F4000184604F067FA034683F00103DBB2002B66
:101F500000F09A804FF47A7007F03EFD3E4B5B69CB
:101F6000184605F035FB3C4B9B68184604F01EFEF6
:101F7000394BDB68184605F0B3F9374B1B68184638
:101F800003F0F6FF344B1B69184605F0A9FA324BF3
:101F90005B68184604F096FA01F06EFC08F09AFDB2
:101FA0002D4B1B69184605F0A9FA2B4B5B681846A8
:101FB00004F098FA2A48FFF7BFFA2A4800F0CCFB51
:101FC000294801F021FD244BD3F8B030184605F024
:101FD00077F8214BD3F8AC30184605F011F81E4BBA
:101FE000D3F8B430184605F0DBF81B4BD3F8A83013
:101FF000184604F0B5FF4FF47A7007F0EDFC18486E
:10200000FFF79AFA184801F0FFFC4FF47A7007F0D6
:10201000E3FCFFF7B1FE10EE103A1846FEF7C0FBE6
:1020200002460B461046194609A3D3E90023FEF7E2
:102030009BFE0346002B19D0074B5B6D1846012110
:1020400007F044F901F0A6FF1EE000BFAFF30080E7
:102050009A99999999990D4080040020480E002082
:102060000C120020300E0020E40D00206E4BD3F83F
:102070009030184604F03CFD9FED6C0ADFED6B0AD2
:1020800002F00AF801F0C8FF674B5B6A184604F0DB
:102090006FF9034683F00103DBB2002B00F083806D
:1020A0004FF47A7007F098FC5F4B5B69184605F0B7
:1020B0008FFA5D4B9B68184604F078FD5A4BDB683D
:1020C000184605F00DF9584B1B68184603F050FFF1
:1020D000554B1B69184605F003FA534B5B681846CD
:1020E00004F0F0F901F0C8FB08F0F4FC4E4B1B695A
:1020F000184605F003FA4C4B5B68184604F0F2F9F9
:10210000494BD3F8B430184605F04AF8464BD3F89B
:10211000A830184604F024FF434BD3F8AC301846DF
:1021200004F07EFF404BD3F8B030184604F0D8FFDF
:102130004FF47A7007F050FC3D48FFF7FDF93D4839
:1021400001F062FC4FF47A7007F046FCFFF714FED2
:1021500010EE103A1846FEF723FB02460B461046D7
:1021600019462FA3D3E90023FEF7FEFD0346002BFB
:102170000BD000F0A1FC304B00221A702A4B5B6D93
:102180001846012107F0A2F80DE0274BD3F8903054
:10219000184604F0ADFC9FED250ADFED240A01F09E
:1021A0007BFF01F039FF204B1B6A184604F08EF8C4
:1021B000034683F00103DBB2002B15D000F06CF86E
:1021C000194B5B69184605F003FA174B9B681846D4
:1021D00004F0ECFC144B1B68184603F0B9FE124BDC
:1021E000DB68184605F06CF80F4BDB6A184604F004
:1021F000C3F9034683F00103DBB2002B0BD00A4B7B
:102200005B69184605F0D6F9074B9B68184604F041
:10221000BDFC01F0E3FC07F57377BD4690BD00BF40
:102220009A99999999990D40800400200000000026
:102230000C120020E40D002000000020AFF300800D
:1022400080B500AF094B01221A70094BD3F88C30CE
:10225000184604F07BFB0346002B05D0044BD3F853
:10226000C030184605F0ECF880BD00BF200100200A
:102270008004002080B500AF064BD3F8C03018466C
:1022800005F0CEF8034BD3F8BC30184605F078F8CB
:1022900080BD00BF8004002080B400AF3A4B022212
:1022A0001A60394B5A229A61374B07221A63364B10
:1022B0005A229A64344B07221A66334B5A229A6781
:1022C000314B0622C3F890202F4B5A22C3F8A82086
:1022D0002D4B0622C3F8C0202B4B5A22C3F8D8201E
:1022E000294B0522C3F8F020274B5A22C3F80821B6
:1022F000254B0522C3F82021234B5A22C3F838214D
:10230000214B0422C3F850211F4B5A22C3F86821E5
:102310001D4B0422C3F880211B4B5A22C3F898217D
:10232000194B0322C3F8B021174B5A22C3F8C82116
:10233000154B0322C3F8E021134B5A22C3F8F821AE
:10234000114B0222C3F810220F4B5A22C3F8282245
:102350000D4B0222C3F840220B4B5A22C3F85822DD
:10236000094B0122C3F87022074B5A22C3F8882276
:10237000054B0122C3F8A022034B012283F8C0239E
:10238000BD465DF8047B7047480E002080B400AF66
:102390007549754B03F581531C331B6843F000727C
:1023A00001F581531C331A60704B00221A606F4B89
:1023B0006E4A526D42F005025A656C4B6B4A926D43
:1023C00042F080029A65694B684AD2F8842042F054
:1023D0000402C3F88420654B644A12681A60634B98
:1023E000624AD2F8842042F0C002C3F884205F4BD6
:1023F0005E4AD2F8842022F40072C3F884205B4B3A
:102400000022DA65594B00221A67584B0022DA661F
:10241000564B0022DA64554B00225A60534B4FF65C
:10242000FF729A60514B00225A60504B4F4AD2F8CB
:10243000802022F01802C3F880204C4B4B4AD2F87F
:10244000802042F02002C3F88020484B474AD2F84F
:10245000802042F00102C3F88020444B434A1268B6
:1024600042F040021A60414B404A126842F00802B2
:102470001A603D493C4B03F581531C331B6843F004
:10248000806201F581531C331A60394B00221A60B7
:10249000374B374A526D42F005025A65344B344A85
:1024A000926D42F080029A65314B314AD2F8842015
:1024B00042F00402C3F884202D4B2D4A12681A60A2
:1024C0002B4B2B4AD2F8842042F0C002C3F8842060
:1024D000274B274AD2F8842022F40072C3F88420C4
:1024E000234B0022DA65224B00221A67204B002280
:1024F000DA661F4B0022DA641D4B00225A601C4B27
:102500004FF6FF729A601A4B00225A60184B184A15
:10251000D2F8802022F01802C3F88020144B144A0D
:10252000D2F8802042F02002C3F88020104B104ADD
:10253000D2F8802042F00102C3F880200C4B0C4AF4
:10254000126842F040021A60094B094A126842F0D0
:1025500008021A60054B00225A60054B00225A609F
:10256000BD465DF8047B7047007004400090034056
:1025700000A003400000000090B5ADF56F7DEEAF08
:10258000FFF778FE4FF4FA7007F026FA01F020F812
:102590000346002B00F0BA80FFF7F8FE644B1B697E
:1025A000184604F0ABFF624B5B68184603F09AFFD5
:1025B0005F4B5B69184604F0FDFF5D4B9B68184656
:1025C00004F0E4FAFFF7D8FB10EE103A1846FEF7D5
:1025D000E7F802460B461046194653A3D3E90023F9
:1025E000FEF7C2FB0346002B00F08180504BD3F86E
:1025F0008C30184604F0AAF9034683F00103DBB2DD
:10260000002B6DD0FFF748FC4A4B1B78002B62D0A3
:10261000494B1B78002B52D0484C694604F11002FC
:102620004FF46D73084611461A460BF00BF994E807
:102630000F0007F0F5F90346002B3CD03C4B5B6DD7
:102640001846002106F042FE9FED3D0ADFED3C0AF0
:1026500001F022FD01F0E0FC354B5B69184604F007
:10266000B7FF334B9B68184604F0A0FA304B1B6948
:10267000184604F043FF2E4B5B68184603F032FF08
:102680002C4B00221A702A4BD3F8B430184604F0B1
:1026900077FD274BD3F8A830184604F051FC244BA3
:1026A000D3F8B030184604F00BFD214BD3F8AC3012
:1026B000184604F0A5FC1F4B00221A700BE02148BD
:1026C000FEF73AFF204800F047F8204801F09CF957
:1026D000184B00221A701E48012100F077F985E797
:1026E000134BD3F8C030184604F0AAFE7EE7104B17
:1026F000D3F89030184604F0FBF99FED110ADFED96
:10270000100A01F0C9FC01F087FC3FE7084B1B6988
:10271000184604F0E5FE064B5B68184603F0D2FE4F
:1027200034E700BFAFF300809A99999999990D40C9
:10273000800400202001002000000020480E00201E
:10274000000000000C120020300E0020E40D0020DC
:10275000D11D0000AFF3008080B582B000AF78607B
:10276000804B5B689AB27B681A807F4B5B689BB238
:102770005B429BB29AB27B685A807B681B881BB213
:102780001846FDF7FBFF02460B46104619464FF070
:102790000002764BFEF758F802460B4610461946E3
:1027A000FEF7ECFA03469AB27B681A807B685B8876
:1027B0001BB21846FDF7E2FF02460B4610461946CB
:1027C0004FF00002694BFEF73FF802460B461046F9
:1027D0001946FEF7D3FA03469AB27B685A807B68A3
:1027E0001B881AB241F64C539A4206DC7B685B8820
:1027F0001AB241F64C539A423DDD5A4B00225A60C0
:10280000594B00225A607B6893ED027A7B681B88E3
:102810001AB27B689B881BB2D31A07EE903AF8EE87
:10282000E76ADFED537A66EEA77A77EE277A7B6860
:10283000C3ED027A7B6893ED037A7B685B881AB2FA
:102840007B68DB881BB2D31A07EE903AF8EEE76A92
:10285000DFED477A66EEA77A77EE277A7B68C3EDDD
:10286000037A7B6800229A807B680022DA80414BE1
:1028700000221A606EE07B6893ED027A7B681B8809
:102880001AB27B689B881BB2D31A07EE903AF8EE17
:10289000E76ADFED377A66EEA77A77EE277A7B680C
:1028A000C3ED027A7B6893ED037A7B685B881AB28A
:1028B0007B68DB881BB2D31A07EE903AF8EEE76A22
:1028C000DFED2B7A66EEA77A77EE277A7B68C3ED89
:1028D000037A7B681A887B689A807B685A887B6851
:1028E000DA80244B1A687B681988234B23F812106E
:1028F000204B1A687B685988204B23F812101D4B17
:102900001B680B2B26D11C4BDB8A1AB21A4B5B8837
:102910001BB2D31A4FF4FA7202FB03F307EE103A1C
:10292000F8EEC77A7B68C3ED047A134BDB8A1AB2E0
:10293000114B5B881BB2D31A4FF4FA7202FB03F3FC
:1029400007EE103AF8EEC77A7B68C3ED057A094BBB
:1029500000221A60074B1B685A1C064B1A60083786
:10296000BD4680BD0090034000A003400000D03F62
:102970001104A73968120020501200206C120020A8
:1029800080B485B000AF0346FB71EFF3108072B6E0
:10299000F873FB795B09DBB21A4619460A4B53F808
:1029A0002110FB7903F01F034FF0004020FA03F3DE
:1029B0001943054B43F82210F87B80F31088143735
:1029C000BD465DF8047B70472401002080B584B0CB
:1029D00000AF78600B46FB70EFF3108072B6B873EF
:1029E0000023FB732CE0FB7B5B09DBB21A461C4B1C
:1029F00053F82220FB7B03F01F034FF0004121FA24
:102A000003F31340002B18D0FB78002B14D0FB7B72
:102A10005B09DBB21A461946114B53F82110FB7BB8
:102A200003F01F034FF0004020FA03F3DB4319408B
:102A30000B4B43F8221006E005E0FB7B0133FB73F0
:102A4000FB7B042BCFD9B87B80F31088FB7B052B55
:102A500003D0FA7B7B68104698471037BD4680BD8F
:102A60002401002080B500AFFFF7EAFB80BD00BF66
:102A700080B400AFBD465DF8047B704780B400AF02
:102A8000BD465DF8047B704780B400AFBD465DF87D
:102A9000047B704780B400AFBD465DF8047B70478F
:102AA00080B400AFBD465DF8047B704780B400AFD2
:102AB000BD465DF8047B704780B500AF5A494FF0C2
:102AC00000024FF00003C1E90023574946A3D3E9B0
:102AD0000023C1E9182354494FF00002534BC1E9C8
:102AE0001A23514942A3D3E90023C1E91C234E49CB
:102AF0004FF000024D4BC1E91E234B494FF000023D
:102B00004A4BC1E9202348494FF00002474BC1E935
:102B1000222345494FF00002454BC1E916234249A3
:102B20004FF00002434BC1E924233F494FF000021C
:102B3000414BC1E926233C4B012283F8A0203A4BAC
:102B40003E4A1A6538494FF000023D4BC1E9102357
:102B5000354801F061FB3B4927A3D3E90023C1E9D4
:102B60000023384926A3D3E90023C1E918233549B6
:102B70001FA3D3E90023C1E91A23324922A3D3E9D1
:102B80000023C1E91C232F494FF00002284BC1E963
:102B90001E232C494FF00002244BC1E92023294970
:102BA0004FF00002214BC1E92223264918A3D3E9A3
:102BB0000023C1E91623234917A3D3E90023C1E960
:102BC0002423204916A3D3E90023C1E926231D4B62
:102BD000012283F8A0201B4B4FF07C525A65194804
:102BE00001F01AFB80BD00BF9A9999999999B93F54
:102BF0000000000080842E41000000000067BB4000
:102C00007B14AE47E17A743FFCA9F1D24D62503F8C
:102C1000FCA9F1D24D62403F6666666666660AC0F0
:102C20006666666666660A40880B00200000F03F14
:102C30000000E03F00000AC000000A40CDCCCC3EBE
:102C400000407F40500C002080B500AF9FED030A8C
:102C5000DFED020A01F020FA80BD00BF0000000095
:102C600080B500AFFFF7F0FF144800F0CDFE134B26
:102C70001A6B134B1A60B7EE000AFFEE000A01F060
:102C80000BFA06E00D4800F0BFFE47F2305006F0A8
:102C90006DFE0A4B93ED0C7A094BD3ED007A37EEBB
:102CA000677ADFED087AB4EEE77AF1EE10FAE9DC44
:102CB000FFF7CAFF012006F08FFE80BDE40D002063
:102CC000881200200000B4C280B500AFFFF7BCFF3F
:102CD000144800F099FE134B1A6B134B1A609FEDCA
:102CE000130ADFED130A01F0D7F906E00D4800F0F2
:102CF0008BFE47F2305006F039FE0A4B93ED0C7A0A
:102D0000094BD3ED007A37EE677ADFED0A7AB4EE3D
:102D1000E77AF1EE10FAE9D4FFF796FF0A2006F001
:102D20005BFE80BDE40D002088120020CDCC8CBF5E
:102D3000CDCC8C3F0000B442B0B584B000AF87ED7D
:102D4000010A2C48FFF708FD2A4B93ED037A294B23
:102D5000D3ED027A37EE277AF6EE007A67EE277A1D
:102D6000C7ED037A244B00225A60244B00225A609C
:102D7000B6EE000AF6EE000A01F08EF902E01D48F8
:102D8000FFF7EAFC1B4B93ED037A1A4BD3ED027A63
:102D900077EE277A17EE900AFDF702FD02460B4602
:102DA000104619464FF00002154BFDF74DFD024647
:102DB0000B4614461D46F868FDF7F2FC02460B462A
:102DC00020462946FDF78CFB02460B4614461D465D
:102DD0007868FDF7E5FC02460B4620462946FDF7DC
:102DE000A5FF0346002BCAD1FFF72EFF1037BD46C3
:102DF000B0BD00BF300E00200090034000A0034093
:102E00000000E03F80B500AFFFF72AFF014B024A08
:102E10001A6580BD880B0020CDCCCC3E80B582B039
:102E200000AF0346FB71FB79012B02D0022B08D0C7
:102E300015E0FFF749FFFFF707FF0C4B0C4A1A6537
:102E400010E09FED0C0AFFF777FFFFF73DFF9FEDC6
:102E5000090AFFF771FF054B054A1A6502E0FFF703
:102E6000F3FE00BF0837BD4680BD00BF880B0020C1
:102E7000CDCCCC3EEC51B83D80B582B000AF78608F
:102E80007A68074B11461A464FF47173084611468B
:102E90001A460AF0D7FC78680837BD4680BD00BFE7
:102EA000480E002080B582B000AF78607B685B6818
:102EB000114812491A4605F059F87B685B681048BA
:102EC00010491A4605F052F87B685B680E481946AF
:102ED00004F038FE7B685B680C48194604F032FE4B
:102EE0007B685B680548194604F02CFE00231846F1
:102EF0000837BD4680BD00BF08DA000010DA0000C8
:102F000014DA00001CDA000028DA00002CDA0000D5
:102F100080B584B000AFF860B9607A60F86889491C
:102F2000FDF7A4FF0346002B07D0F8688649FDF79C
:102F30009DFF0346002B40F08A807B685B688348D6
:102F4000194604F0FFFD7B685B688148194604F070
:102F5000F9FD7B685B687D48194604F0F3FD7B68EA
:102F60005B687C48194604F0EDFD7B685B68774838
:102F7000194604F0E7FD7B685B687548194604F064
:102F8000E1FD7B685B687148194604F0DBFD7B68F6
:102F90005B68714871491A4604F0D6FF7B685B682C
:102FA0006B48194604F0CEFD7B685B68674819469C
:102FB00004F0C8FD7B685B686948194604F0C2FDEF
:102FC0007B685B686148194604F0BCFD7B685B6800
:102FD0006448194604F0B6FD7B685B685B48194697
:102FE00004F0B0FD7B685B685F48194604F0AAFDF9
:102FF0007B685B685548194604F0A4FD7B685B68F4
:103000005A48194604F09EFD7B685B684F48194694
:1030100004F098FD7B685B685548194604F092FD02
:103020007B685B684948194604F08CFD7B685B68E7
:103030005048194604F086FD7B685B684348194692
:1030400004F080FDBB6801221A70002376E0F86866
:103050004949FDF70BFF0346002B07D1BB6801224E
:103060001A707868FFF71EFF034667E0F868434967
:1030700006F090FB0346002B5FD1BB6801221A705B
:103080003F48F96800F0B8F83E4B1B78002B2ED073
:103090007B685B682D48194604F054FD7B685B68CB
:1030A0002A48194604F04EFD7B685B68274819469C
:1030B00004F048FD7B685B682548194604F042FD32
:1030C0007B685B682148194604F03CFD7B685B68BF
:1030D0002D48194604F036FD7B685B681C4819468C
:1030E00004F030FD4FF47A7006F076FC23E07B6844
:1030F0005B681648194604F025FD7B685B68134839
:10310000194604F01FFD7B685B681048194604F0FF
:1031100019FD7B685B680E48194604F013FD7B6857
:103120005B681A48194604F00DFD7B685B68084827
:10313000194604F007FD002300E00023184610376D
:10314000BD4680BD38DA000040DA000010DA000029
:103150004CDA00008CDA000098DA0000A4DA0000F3
:10316000C8DA0000ECDA000004DB000018DB000025
:103170003CDB000068DB000070DB000078DB000057
:10318000480E0020280100207CDB000098DB0000B6
:1031900080B5ADF5167D00AF3B46184600214FF4D3
:1031A00016720AF058FB4FF4FA6006F015FC0DE0B9
:1031B00004F01AFE03463A4610464FF416711A46BA
:1031C0000B4B04F01DFE322006F006FC094B1B7869
:1031D000002BEDD0074B00221A703B461846002109
:1031E0004FF416720AF037FB07F51677BD4680BD1F
:1031F000C4DE00002801002080B586B000AF7860F2
:1032000039600023FB750023BB7500237B7538688C
:1032100024210AF028FB386138693B210AF023FB9E
:10322000F860FA683B69D31ADBB2013BFB7507F122
:1032300008031846002104220AF00DFB3B695A1CC2
:10324000FB7D07F10801084611461A460AF037FBD4
:1032500007F1080318460AF0B1FA0346BB757B680C
:10326000BA7D83F8C023BB7D7868F9681A4600F000
:1032700031F83861386924210AF0F5FA3861386983
:103280003B210AF0F0FAF86007F108031846002124
:1032900004220AF0E0FA3B695A1CF9683B69CB1A30
:1032A000013B07F10801084611461A460AF007FBE0
:1032B00007F1080318460AF081FA03467B757B7D07
:1032C000FF2B02D1024B01221A701837BD4680BD78
:1032D0002801002080B58AB000AFF860B9601346BD
:1032E000FB71BB687B62002387F82130002387F8DD
:1032F0002330F3E0012006F06FFB786A23210AF007
:10330000B2FAF861F8693B210AF0ADFAF861FB699D
:10331000013318463B210AF0A6FA78627A6AFB6903
:10332000D31ADBB2013B87F8213007F110031846AE
:10333000002104220AF08FFAFB695A1C97F8213009
:1033400007F11001084611461A460AF0B8FA07F1CB
:10335000100318460AF032FA03467B83786A3B2151
:103360000AF081FAF861FB69013318463B210AF043
:103370007AFA78627A6AFB69D31ADBB2013B87F882
:10338000213007F110031846002104220AF063FAE5
:10339000FB695A1C97F8213007F1100108461146C5
:1033A0001A460AF08CFA07F1100318460AF006FADA
:1033B00003463B83B7F9183013F15A0F0CD0B7F915
:1033C00018305A2B08D0B7F9183013F1B40F03D0C6
:1033D000B7F91830B42B0CD1B7F91A305A1EB7F917
:1033E0001810F86813465B001344DB0003441960AF
:1033F0006FE0002387F8223065E00A2006F0ECFA3F
:1034000007F110031846002104220AF024FA7B6A0F
:10341000013307F110021046194601220AF04FFA53
:1034200007F1100318460AF0C9F90346FB7507F1C6
:1034300010031846002104220AF00DFA7B6A0333B8
:1034400007F110021046194601220AF038FA07F176
:10345000100318460AF0B2F90346BB757B6A0333C2
:1034600018463B210AF0FFF97862B7F91A305A1E64
:10347000B7F91810F86813465B001344DB000344E7
:103480001960B7F91A305A1E97F82200F9681346E6
:103490005B001344DB0003440B44FA7D1A71B7F957
:1034A0001A305A1E97F82210F86813465B0013442E
:1034B000DB0003440B440833BA7D9A7197F822303D
:1034C000013387F8223097F82220B7F918309A4252
:1034D00093DB97F82330013387F8233097F82320C4
:1034E000FB799A42FFF406AF7B6A18462837BD463F
:1034F00080BD00BF80B483B000AF0346FB71044BB6
:10350000FA791A700C37BD465DF8047B704700BF2E
:103510000100002080B584B000AF0346FB8000BFEF
:1035200005F0B6F90346002BFAD100BFFB88184618
:1035300005F0EAF80346002BF8D100BF05F0A8F922
:103540000346002BFAD100BF05F096F90346002B85
:10355000FAD000BF07F10E03184605F06DF80346D8
:10356000002BF7D105F042F9FB891BB21846103742
:10357000BD4680BD80B582B000AF02460B46FA71F1
:10358000BB8097F907301B029BB21A46BB881343D6
:103590009BB21BB21846FFF7BDFF0837BD4680BD82
:1035A00080B582B000AF0346FB7197F907301B026C
:1035B0009BB26FEA43436FEA53439BB21BB2184678
:1035C000FFF7A8FF034618460837BD4680BD00BF79
:1035D00080B582B000AF0F20FFF7E2FF0346FB800B
:1035E0000F20FFF7DDFF0346FB80FB887B717B79B3
:1035F000692B15D112200021FFF7BCFF10200821F4
:10360000FFF7B8FF11200C21FFF7B4FF102088212D
:10361000FFF7B0FF11208C21FFF7ACFF012300E082
:10362000002318460837BD4680BD00BF80B584B072
:1036300000AF786002237B730023BB730023FB730E
:1036400015E0BB7B2833DBB2DBB25BB21846FFF779
:10365000A7FF03467B81BB7B7A6813447A89D2B289
:103660001A70BB7B0133BB73FB7B0133FB73FA7BAB
:103670007B7B9A42E5D31037BD4680BD80B584B0D0
:1036800000AF786002237B730023BB730023FB73BE
:1036900015E0BB7B2633DBB2DBB25BB21846FFF72B
:1036A0007FFF03467B81BB7B7A6813447A89D2B261
:1036B0001A70BB7B0133BB73FB7B0133FB73FA7B5B
:1036C0007B7B9A42E5D31037BD4680BD80B584B080
:1036D00000AF786000233B7300237B7307F10C037A
:1036E0001846FFF7A3FF7B7B1B029AB23B7B134478
:1036F0009BB29AB27B681A801037BD4680BD00BF6E
:1037000080B584B000AF786000233B7300237B73E7
:1037100007F10C031846FFF7B1FF7B7B1B029AB23F
:103720003B7B13449BB29AB27B681A801037BD462C
:1037300080BD00BF80B584B000AF786007F10E0394
:103740001846FFF7C3FFFB891BB207EE903AB8EEAD
:10375000E77ADFED167A67EE277A7B68C3ED007AA9
:103760007B6893ED007A7B68D3ED047A37EE677A55
:10377000DFED0F7A27EE277ADFED0E7A67EE277AF4
:103780007B68C3ED087A7B6893ED0B7A7B68D3ED99
:10379000086ADFED097A66EEA77A77EE277A7B680A
:1037A000C3ED0B7A1037BD4680BD00BF23DBF93D6A
:1037B0006F12833AC3F51CC16F12033A0000000078
:1037C00080B584B000AF786007F10E031846FFF7AC
:1037D00097FFFB891BB207EE903AB8EEE77ADFED70
:1037E000227A67EE277A7B68C3ED017A7B6893EDD6
:1037F000017A7B68D3ED057A77EE677A17EE900A47
:10380000FCF7CEFF02460B461046194614A3D3E937
:103810000023FDF719F802460B4610461946FDF73E
:10382000D5FA02467B685A627B6893ED097ADFED30
:103830000F7A67EE277A7B68C3ED0A7A7B6893ED8F
:103840000C7A7B68D3ED096ADFED097A66EEA77A18
:1038500077EE277A7B68C3ED0C7A1037BD4680BDC2
:10386000FCA9F1D24D62503F00008C4235FA8E3CEB
:103870006F12033AAFF3008080B582B000AF00232F
:103880007B6034E04E4800F0BFF84D4B93ED007A7A
:103890004C4BD3ED007A77EE277A4A4BC3ED007A92
:1038A000494B93ED007A464BD3ED027A77EE277AB7
:1038B000454BC3ED007A444B93ED017A404BD3ED79
:1038C000037A77EE277A404BC3ED017A3E4B93EDB6
:1038D000027A3B4BD3ED017A77EE277A3A4BC3ED70
:1038E000027A012006F078F87B6801337B607A6801
:1038F00042F20F739A42C5DD324B1B681846FCF743
:103900004FFF02460B46104619462BA3D3E900236E
:10391000FCF79AFF02460B4610461946FDF756FA89
:103920000246284B1A60284B1B681846FCF738FFE4
:1039300002460B46104619461FA3D3E90023FCF7A5
:1039400083FF02460B4610461946FDF73FFA024632
:103950001D4B1A601C4B5B681846FCF721FF0246A2
:103960000B461046194614A3D3E90023FCF76CFF5D
:1039700002460B4610461946FDF728FA0246124B3E
:103980005A60114B9B681846FCF70AFF02460B462B
:103990001046194608A3D3E90023FCF755FF024659
:1039A0000B4610461946FDF711FA0246064B9A607F
:1039B0000837BD4680BD00BF2D431CEBE2361A3FE1
:1039C000E40D00208C12002090120020AFF3008044
:1039D00080B400AF044B9B6807EE903AB0EE670AE4
:1039E000BD465DF8047B70479012002080B400AFA4
:1039F000044B1B6807EE903AB0EE670ABD465DF8CF
:103A0000047B70478C12002080B582B000AF7860D4
:103A10007868FFF7D5FE7868FFF78CFE0837BD465B
:103A200080BD00BF80B584B000AF7860786809F0D1
:103A300027FF03469AB207F10E03786811461A462B
:103A400000F0DCFF1037BD4680BD00BF80B48BB0F6
:103A500000AF786287ED080AF961BA617B61C7ED52
:103A6000040A87ED031AC7ED021A87ED012A594BA4
:103A70001A8840F6C3139A4200F2A680554B1B8861
:103A8000FA69126854499B000B441A60514B1B8819
:103A9000FA695268504903F6C4139B000B441A603C
:103AA0004C4B1B88BA6912684B4903F59C53083389
:103AB0009B000B441A60474B1B88BA695268464901
:103AC00003F5EA530C339B000B441A60414B1B88EF
:103AD0007A691268404903F51C5310339B000B446C
:103AE0001A603C4B1B887A6952683B4903F5435383
:103AF00014339B000B441A60364B1B88BA6B126858
:103B0000354903F56A5318339B000B441A60314B57
:103B10001B88BA6B5268304903F588435C339B00BD
:103B20000B441A602B4B1B882B4A03F59C43203314
:103B30009B0013447A681A60264B1B883A6B5268C4
:103B4000254903F59C4320339B000B441A60214B0D
:103B50001B883A6B9268204903F5AF4364339B009E
:103B60000B441A601B4B1B883A6D12681A4903F507
:103B7000C34328339B000B441A60164B1B883A6DD5
:103B80005268154903F5D6436C339B000B441A6009
:103B9000104B1B887A6D12680F4903F5EA433033E6
:103BA0009B000B441A600B4B1B887A6D52680A49C4
:103BB00003F5FD4374339B000B441A60054B1B88CF
:103BC00001339AB2034B1A802C37BD465DF8047B53
:103BD000704700BF9C120020A012002080B5BAB030
:103BE00000AF002387F8E03007F1E0031846042116
:103BF0000A2205F007FC0023A7F8E630B9E100230C
:103C00003B713B1D1846DC210A2205F0FBFBB7F88F
:103C1000E630D94A9B001344D3ED007A3B1D184689
:103C2000DC21B0EE670A082205F064FE3B1D184651
:103C3000DC21D24A05F0B4FB3B1D1846DC210922E9
:103C400005F0E0FBB7F8E630CB4A03F6C4139B005F
:103C50001344D3ED007A3B1D1846DC21B0EE670A11
:103C6000082205F047FE3B1D1846DC21C34A05F03B
:103C700097FB3B1D1846DC21092205F0C3FBB7F872
:103C8000E630BD4A03F59C5308339B001344D3ED43
:103C9000007A3B1D1846DC21B0EE670A082205F0C9
:103CA00029FE3B1D1846DC21B44A05F079FB3B1D7B
:103CB0001846DC21092205F0A5FBB7F8E630AE4A2C
:103CC00003F5EA530C339B001344D3ED007A3B1DFC
:103CD0001846DC21B0EE670A082205F00BFE3B1DFA
:103CE0001846DC21A54A05F05BFB3B1D1846DC218C
:103CF000092205F087FBB7F8E6309F4A03F51C530D
:103D000010339B001344D3ED007A3B1D1846DC2191
:103D1000B0EE670A082205F0EDFD3B1D1846DC21D8
:103D2000964A05F03DFB3B1D1846DC21092205F0B3
:103D300069FBB7F8E630904A03F5435314339B0010
:103D40001344D3ED007A3B1D1846DC21B0EE670A20
:103D5000082205F0CFFD3B1D1846DC21874A05F0FF
:103D60001FFB3B1D1846DC21092205F04BFBB7F871
:103D7000E630814A03F56A5318339B001344D3EDB0
:103D8000007A3B1D1846DC21B0EE670A082205F0D8
:103D9000B1FD3B1D1846DC21784A05F001FB3B1DB7
:103DA0001846DC21092205F02DFBB7F8E630724AEF
:103DB00003F588435C339B001344D3ED007A3B1D2D
:103DC0001846DC21B0EE670A082205F093FD3B1D82
:103DD0001846DC21694A05F0E3FA3B1D1846DC2150
:103DE000092205F00FFBB7F8E630634A03F59C4360
:103DF00020339B001344D3ED007A3B1D1846DC2191
:103E0000B0EE670A082205F075FD3B1D1846DC215F
:103E10005A4A05F0C5FA3B1D1846DC21092205F077
:103E2000F1FAB7F8E630544A03F5AF4364339B0028
:103E30001344D3ED007A3B1D1846DC21B0EE670A2F
:103E4000082205F057FD3B1D1846DC214B4A05F0C2
:103E5000A7FA3B1D1846DC21092205F0D3FAB7F872
:103E6000E630454A03F5C34328339B001344D3EDA2
:103E7000007A3B1D1846DC21B0EE670A082205F0E7
:103E800039FD3B1D1846DC213C4A05F089FA3B1DF3
:103E90001846DC21092205F0B5FAB7F8E630364AB3
:103EA00003F5D6436C339B001344D3ED007A3B1DDE
:103EB0001846DC21B0EE670A082205F01BFD3B1D09
:103EC0001846DC212D4A05F06BFA3B1D1846DC2113
:103ED000092205F097FAB7F8E630274A03F5EA43D6
:103EE00030339B001344D3ED007A3B1D1846DC2190
:103EF000B0EE670A082205F0FDFC3B1D1846DC21E8
:103F00001E4A05F04DFA3B1D1846DC21092205F03A
:103F100079FAB7F8E630184A03F5FD4374339B008D
:103F20001344D3ED007A3B1D1846DC21B0EE670A3E
:103F3000082205F0DFFC3B1D1846DC210F4A05F086
:103F40002FFA3B1D1846DC21092205F05BFA3B1DC8
:103F50001846FFF767FD3B1D18460021DC2209F0DB
:103F60007AFC322005F038FDB7F8E6300133A7F8C7
:103F7000E630034B1B8805E0A0120020C4DB0000E4
:103F80009C120020B7F8E6209A42FFF438AEE837DA
:103F9000BD4680BD80B500AF1E4BD3F8A03018469B
:103FA00002F00EFF1B4BDB6E184602F0B5F80A203C
:103FB00005F012FD174BD3F8A030184602F010FFA1
:103FC000144B5B6E184602F059F8124B9B6E184664
:103FD00003F0A8FB0F4BD3F8A430184602F050FFB3
:103FE0000C4BD3F88030184602F0EEFB0A2005F0A7
:103FF000F3FC084BD3F8A430184602F051FF054BF0
:104000009B6F184602F036FB024BDB6F184602F03E
:104010008DFB80BD8004002080B500AF0A4B5B6E35
:10402000184602F01DF8084B9B6E184603F06CFB17
:10403000054B9B6F184602F00FFB034BDB6F1846D6
:1040400002F066FB80BD00BF8004002080B582B016
:1040500000AF02460B46FA71BB710C4BFA795A70ED
:104060000A4BBA795A720A4B5A6E084B5B78104663
:10407000194601F0DDFF064B9A6F044B5B7A104640
:10408000194602F0D1FA0837BD4680BD303602200D
:10409000800400200000000080B582B000AF87EDF2
:1040A000010AC7ED000AD7ED017AF5EEC07AF1EE0C
:1040B00010FA1DD57868FCF773FB02460B461046D4
:1040C00019464BA3D3E90023FCF730FE0346002B2F
:1040D00002D04B4B7B6005E0D7ED017AF1EE677AB9
:1040E000C7ED017A474B9B6E184603F00DFB04E0C9
:1040F000444B9B6E184603F015FBD7ED007AF5EEA6
:10410000C07AF1EE10FA1DD53868FCF749FB02467B
:104110000B461046194636A3D3E90023FCF706FEEA
:104120000346002B02D0364B3B6005E0D7ED007A0A
:10413000F1EE677AC7ED007A324BDB6F184602F07A
:10414000F5FA04E02F4BDB6F184602F0E1FA7868CD
:10415000FCF726FB02460B461046194626A3D3E978
:104160000023FCF701FE0346002B01D0244B7B60AB
:104170003868FCF715FB02460B46104619461EA38D
:10418000D3E90023FCF7F0FD0346002B01D01C4BC4
:104190003B6097ED017ADFED1C7A67EE277AFCEE43
:1041A000E77A17EE903A9AB2184BDA8097ED007AD8
:1041B000DFED157A67EE277AFCEEE77A17EE903A94
:1041C0009AB2124BDA810F4B9A6B114B1B88104637
:1041D000194604F0F3F80B4B1A6F0E4B1B88104670
:1041E000194604F059F90837BD4680BDAFF3008089
:1041F0006666666666660AC06666666666660A40E3
:10420000333353408004002000209B44303602208A
:10421000363602203E3602202DE9B04382B000AF90
:1042200078607B68D3E918017B68D3E91623FCF733
:104230000BFB02460B46104619467B68D3E91A234E
:10424000FCF72CFC02460B467968C1E92A237B68FF
:10425000D3E916017B68D3E91E23FCF71FFC024655
:104260000B467968C1E92C237B68D3E918017B6888
:10427000D3E92023FCF7E8FA02460B46104619461C
:104280007B68D3E91C23FCF7DFFA02460B46144691
:104290001D467B68D3E91C897B68D3E920017B68D4
:1042A000D3E91623FCF7D0FA02460B4640464946AE
:1042B000FCF718F902460B4620462946FCF7EEFBB0
:1042C00002460B467968C1E92E237B68D3E91C4579
:1042D0007B68D3E91C897B68D3E920017B68D3E93B
:1042E0001623FCF7B1FA02460B4640464946FCF756
:1042F000F9F802460B4620462946FCF7CFFB02465A
:104300000B467968C1E9302379684FF000024FF01D
:104310000003C1E9082379684FF000024FF0000361
:10432000C1E90A2379684FF000024FF00003C1E9A8
:104330000C2379684FF000024FF00003C1E90E230F
:104340000837BD46BDE8B08380B500AFFCF7EEFD91
:10435000FEF712F9FEE700BF80B48BB000AFF86043
:10436000B9607A607B687B6204233B620323FB6154
:104370000223BB6101237B6101233B61FA68BB68B7
:104380009A4202D07B68002B00D151E04DE0BA6820
:10439000FB691340002B19D1FA68FB691340002B0D
:1043A00014D17A6A3B6A9A4210D3FB68BA681268E1
:1043B0001A60FA683B6A1344FB60BA683B6A1344AC
:1043C000BB607A6A3B6AD31A7B622EE0BA687B696B
:1043D0001340002B19D1FA687B691340002B14D1CC
:1043E0007A6ABB699A4210D3FB68BA6812881A804D
:1043F000FA68BB691344FB60BA68BB691344BB60CD
:104400007A6ABB69D31A7B620FE0FB68BA681278DC
:104410001A70FA683B691344FB60BA683B6913443D
:10442000BB607A6A3B69D31A7B627B6A002BAED190
:104430002C37BD465DF8047B704700BF90B583B054
:1044400000AF244B002B00D140E000237B601EE036
:1044500020497A6813465B0013449B000B4458685C
:104460001C497A6813465B0013449B000B4419688F
:10447000184C7A6813465B0013449B0023440833AE
:104480001B681A46FFF768FF7B6801337B601149A0
:104490007A6813465B0013449B000B441B68002B97
:1044A000D6D10C497A6813465B0013449B000B4439
:1044B0005B68002BCCD107497A6813465B00134434
:1044C0009B000B4408331B68002BC1D10C37BD4641
:1044D00090BD00BF0CE3000080B400AF4FF0E023BC
:1044E0004FF0E022D2F8882D42F47002C3F8882DF4
:1044F000BD465DF8047B704780B400AFBD465DF8F3
:10450000047B70470B4C2046002800F0088085464D
:1045100081B04FF000006FEA0000009001B0FFF79B
:10452000DBFFFCF7B9FCFFF789FFFFF7E5FFFBF7BF
:1045300099FFFEE70000032080B582B000AF0023A2
:10454000FB7124E0184BFA791A70184B1B68184657
:104550001549012201F036FB144B1B68184601F087
:1045600005FB00BF114B1B68184601F091FB034689
:10457000002BF7D00D4B1A68FB7959000C4B0B44FC
:104580001046194601F058FBFB790133FB71FB79AA
:10459000042BD7D9074B01221A70074B00221A703F
:1045A0000837BD4680BD00BF2C01002040360220E8
:1045B00044360220340100202A01002080B500AFDB
:1045C0000E4B1B78002B12D00D4B1B68184601F0C8
:1045D000A5FA0C4B1B78DBB2002B0DD00A4B002246
:1045E0001A700A4B00221A70FFF7A6FF04E0044B72
:1045F0001B68184601F0A0FA80BD00BF2901002009
:10460000403602202A010020340100202C01002025
:1046100080B500AF0A4B1B78002B01D107230CE0BB
:10462000084B1B78DBB2002B01D0082305E0054BBB
:1046300001221A70FFF7C2FF0023184680BD00BF99
:10464000290100202A01002080B483B000AF7860E7
:10465000154B1B78DBB2002B01D109231DE0134B56
:104660001B889AB27B681A807B6802330F4A528893
:1046700092B21A807B6804330C4A928892B21A80F4
:104680007B680633094AD28892B21A807B68083365
:10469000064A128992B21A80002318460C37BD468A
:1046A0005DF8047B704700BF3401002044360220CF
:1046B00080B500AF074B01221A70074B00221A7019
:1046C000064B00221A70002001F0BAF90246044B92
:1046D0001A6080BD29010020340100202A01002039
:1046E0004036022080B582B000AF1C4B00221A7009
:1046F0000023FB710023FB7124E0194BFA791A7037
:10470000184B1B6818461649012201F06DFB154B2A
:104710001B68184601F042FB00BF124B1B6818468D
:1047200001F0BCFB0346002BF7D00E4B1A68FB7957
:1047300059000D4B0B441046194601F089FBFB79DB
:104740000133FB71FB79042BD7D9044B01221A707A
:10475000064B00221A700837BD4680BD400100207C
:10476000380100205C36022050360220350100203E
:1047700080B500AF074B1B78DBB2002B01D00823BC
:1047800005E0044B01221A70FFF7ACFF0023184626
:1047900080BD00BF3501002080B483B000AF7860D9
:1047A000154B1B78DBB2002B01D109231DE0134B05
:1047B0001B889AB27B681A807B6802330F4A528842
:1047C00092B21A807B6804330C4A928892B21A80A3
:1047D0007B680633094AD28892B21A807B68083314
:1047E000064A128992B21A80002318460C37BD4639
:1047F0005DF8047B704700BF400100205036022066
:1048000080B500AF064B00221A70064B00221A70CA
:10481000002001F057FA0246034B1A6080BD00BF2A
:1048200040010020350100205C36022080B500AF39
:10483000034B1B6818460349012200F08DFC80BD24
:10484000603602200002002080B485B000AF78609E
:104850000023FB732C4B1B88002B4BD0EFF31380F2
:1048600071B6B873294B1B78DBB20133DBB2274A30
:1048700019461170012B02D1BA7B254B1A70224BBD
:104880001B88013B9AB2204B1A80224B1B885A1C72
:1048900091B2204A1180204AD25C7B681A701D4B6D
:1048A0001B88B32B02D91B4B00221A801B4B1B8881
:1048B0001A4640F641031340002B01D0192300E0B3
:1048C0000023FB73154B1B8823F4046323F00903B7
:1048D0009AB2124B1A800D4B1B78DBB2013BDBB254
:1048E0000A4A19461170002B06D1094B187880F33B
:1048F000138801E00A2300E0FB7B18461437BD460D
:104900005DF8047B704700BF440100200C010020CB
:10491000800B0020460100204C01002042010020B5
:1049200080B584B000AF0346FB712C4B1B88B42BC1
:1049300001D10B234EE0EFF3138071B6F873284BCF
:104940001B78DBB20133DBB2254A19461170012B0B
:1049500002D1FA7B234B1A70204B1B8801339AB289
:104960001E4B1A80204B1B885A1C91B21E4A118084
:104970001E4AF979D1541C4B1B88B32B02D91A4B10
:1049800000221A801A4B1B8803F02003002B12D13F
:10499000174B1B8843F020039AB2154B1A80154B16
:1049A0001A68154B1B881946104B0B4410461946C4
:1049B000012200F019FC0A4B1B78DBB2013BDBB291
:1049C000074A19461170002B03D1064B187880F363
:1049D0001388002318461037BD4680BD0202002010
:1049E0000C010020800B002006020020080200209D
:1049F00042010020603602200402002080B588B009
:104A000000AFF8600B467A607B810023FB83FB6874
:104A1000BB6154E0EFF3138071B6F875334B1B782C
:104A2000DBB20133DBB2314A19461170012B02D1DE
:104A3000FA7D2F4B1A702F4B1B8801339AB22D4BE6
:104A40001A802D4B1B885A1C91B22B4A11801A4692
:104A5000BB69591CB9611978284B9954264B1B889E
:104A6000B32B02D9244B00221A80FB8B0133FB832A
:104A7000234B1B8803F02003002B12D1204B1B88F3
:104A800043F020039AB21E4B1A801E4B1A681E4B2D
:104A90001B881946194B0B4410461946012200F099
:104AA000A3FB124B1B78DBB2013BDBB20F4A19466A
:104AB0001170002B03D10E4B187880F31388FA8BFA
:104AC0007B899A4203D20B4B1B88B32BA2D97B68FC
:104AD000FA8B1A80FA8B7B899A4201D00B2300E073
:104AE000002318462037BD4680BD00BF0C010020C2
:104AF000800B002002020020060200200802002095
:104B000042010020603602200402002080B400AF81
:104B1000034B1B881846BD465DF8047B704700BFF9
:104B20004401002080B500AF0E4B00221A800E4BCE
:104B300000221A800D4B00221A800D4B00221A8091
:104B40000C4B00221A800C4B00221A800B4B0022C7
:104B50001A80002000F014FA0246094B1A60FFF791
:104B600065FE80BD42010020440100204601002076
:104B7000480100200202002004020020060200205A
:104B80006036022080B582B000AF7860164B1B887B
:104B9000B32B17D8144B1B8801339AB2124B1A80CF
:104BA000124B1B885A1C91B2104A1180104A11787E
:104BB000104AD1540D4B1B88B32B0AD90B4B002242
:104BC0001A8006E00C4B1B8843F040039AB20A4B54
:104BD0001A800A4B1B6818460549012200F0BCFAEE
:104BE0000837BD4680BD00BF4401002048010020B9
:104BF000000200204C01002042010020603602200B
:104C000080B582B000AF78601A4B1B8801339AB22E
:104C1000184B1A80174B1B88B32B02D9154B002257
:104C20001A80154B1B88013B9AB2134B1A80124B0A
:104C30001B88002B13D0114B1B8843F020039AB222
:104C40000E4B1A800E4B1A680A4B1B8819460D4BE7
:104C50000B4410461946012200F0C6FA06E0074B45
:104C60001B8803F0DF039AB2044B1A800837BD4655
:104C700080BD00BF0402002002020020420100208B
:104C8000603602200802002080B584B000AF786052
:104C9000214B1A6807F10C031046194600F0E8FB97
:104CA000FB68002B34D0FB6803F00203002B01D01B
:104CB000042300E00023194A128813439AB2174BC9
:104CC0001A80FB6803F00803002B01D0802300E06A
:104CD0000023124A128813439AB2104B1A80FB68C1
:104CE0009BB203F001039AB20C4B1B8813439AB298
:104CF0000A4B1A80FB6803F00403002B01D0022347
:104D000000E00023054A128813439AB2034B1A802D
:104D10001037BD4680BD00BF603602204201002032
:104D200080B483B000AF7860054B1B8843F002036A
:104D30009AB2034B1A800C37BD465DF8047B70476E
:104D40004201002080B500AF034B1B6818460349A1
:104D5000012200F0B1FC80BD643602200403002073
:104D600080B500AF0E4B00221A800E4B00221A8035
:104D70000D4B00221A800D4B00221A800C4B002292
:104D80001A800C4B00221A800B4B00221A80002044
:104D900000F0A6FB0246094B1A60FFF7D3FF80BD67
:104DA000BC020020BE020020C0020020C20200207F
:104DB00006030020080300200A03002064360220B6
:104DC00080B582B000AF7860164B1B883F2B17D898
:104DD000144B1B8801339AB2124B1A80124B1B885A
:104DE0005A1C91B2104A1180104A1178104AD154BD
:104DF0000D4B1B883F2B0AD90B4B00221A8006E073
:104E00000C4B1B8843F040039AB20A4B1A800A4BA2
:104E10001B6818460549012200F04EFC0837BD46C4
:104E200080BD00BFBE020020C2020020040300209B
:104E3000C4020020BC0200206436022080B582B08B
:104E400000AF78601A4B1B8801339AB2184B1A8056
:104E5000174B1B883F2B02D9154B00221A80154B8C
:104E60001B88013B9AB2134B1A80124B1B88002BF4
:104E700013D0114B1B8843F020039AB20E4B1A80BB
:104E80000E4B1A680A4B1B8819460D4B0B441046F3
:104E90001946012200F058FC06E0074B1B8803F07E
:104EA000DF039AB2044B1A800837BD4680BD00BFAD
:104EB0000803002006030020BC0200206436022004
:104EC0000C03002080B584B000AF7860214B1A68D5
:104ED00007F10C031046194600F07AFDFB68002B21
:104EE00034D0FB6803F00203002B01D0042300E060
:104EF0000023194A128813439AB2174B1A80FB6891
:104F000003F00803002B01D0802300E00023124AA5
:104F1000128813439AB2104B1A80FB689BB203F0BD
:104F200001039AB20C4B1B8813439AB20A4B1A80A6
:104F3000FB6803F00403002B01D0022300E00023F0
:104F4000054A128813439AB2034B1A801037BD46A4
:104F500080BD00BF64360220BC02002080B483B054
:104F600000AF7860054B1B8843F002039AB2034BF5
:104F70001A800C37BD465DF8047B7047BC020020E8
:104F800080B485B000AF78606B4BFB60FB6800229B
:104F90001A81FB6800221A82FB680022DA60FB6833
:104FA00000225A82FB6800221A83FB6800225A61A1
:104FB000FB687A68DA61614BFA681A60604BFA68DC
:104FC0001A6060495F4B03F5815314331B6843F447
:104FD000005201F5815314331A605A49594B03F5B5
:104FE000815318331B6843F4806201F581531833F1
:104FF0001A60554A544B9B6A23F0807323F4E06394
:1050000043F440739362504A4F4BDB6A23F0807342
:1050100023F4E06343F44073D3624C4B702283F873
:1050200025234A4B494A526842F020025A60474BB6
:10503000702283F82623454B444A526842F04002CE
:105040005A60434B424AD278D2B222F00802D2B21E
:10505000DA703F4B3E4AD278D2B222F00402D2B28A
:10506000DA70FB6800221A80FB6800225A60384B15
:1050700000229A70364B00229A71354B00229A72A8
:10508000334B00225A71324B00225A73304B304A54
:10509000927AD2B2D2B222F01F02D2B242F003020E
:1050A000D2B2D2B29A722A4B294A1278D2B222F0E4
:1050B0001F02D2B21A70264B41225A70244B244A46
:1050C000127CD2B262F07702D2B21A74204B204A1C
:1050D000527CD2B262F03F02D2B25A741C4B1C4ACC
:1050E000D278D2B2D2B242F00802D2B2D2B2DA70E0
:1050F000174B174AD278D2B2D2B242F00402D2B2DF
:10510000D2B2DA70124B124AD278D2B242F02002F6
:10511000D2B2DA700E4B0E4A9279D2B242F00F023E
:10512000D2B29A710B4BFA681A63FB6818461437AF
:10513000BD465DF8047B70474C0300206C030020E3
:10514000700300200070044000A0044000E100E073
:1051500000D006408004002080B487B000AFF86023
:10516000B9601346FB80FB687B61FB88002B01D193
:1051700084232EE07B691B8A002B01D0082328E0C2
:10518000EFF3138071B6F874154B1B78DBB2013363
:10519000DBB2134A19461170012B02D1FA7C114B74
:1051A0001A707B69BA68DA607B69FA881A827B694F
:1051B00000221A810A4B1B78DBB2013BDBB2084AA2
:1051C00019461170002B03D1064B187880F3138811
:1051D000002318461C37BD465DF8047B704700BFAE
:1051E0000C010020800B002080B487B000AFF86075
:1051F000B9601346FB80FB687B61FB88002B01D103
:10520000842342E07B691B8B002B01D008233CE008
:10521000EFF3138071B6F8741F4B1B78DBB20133C8
:10522000DBB21D4A19461170012B02D1FA7C1B4BCF
:105230001A707B69BA685A617B69FA881A837B693C
:1052400000225A827B691B8843F001039AB27B6972
:105250001A80134B124AD278D2B262F07F02D2B2D5
:10526000DA700F4B0E4A9279D2B29A710A4B1B78C0
:10527000DBB2013BDBB2084A19461170002B03D1A7
:10528000064B187880F31388002318461C37BD4658
:105290005DF8047B704700BF0C010020800B0020EC
:1052A00000D0064090B583B000AF7860124BDB7938
:1052B000DBB21C467B681B8A002B1AD07B68DB683C
:1052C000591C7A68D160E2B21A707B681B8901337D
:1052D0009AB27B681A817B681A897B681B8A9A421A
:1052E00007D17B6800221A827B68DB691846FFF7CA
:1052F00049FC0C37BD4690BD00D0064080B582B059
:1053000000AF78607B685A8A7B681B8B9A421CD2FC
:10531000194A7B685B69581C796848611B78D371AE
:105320007B685B8A01339AB27B685A827B685A8AAF
:105330007B681B8B9A421CD17B6800221A837B6896
:10534000DB691846FFF75CFC13E00B4B0A4AD27886
:10535000D2B202F07F02D2B2DA70074B064A9279DB
:10536000D2B29A717B681B8823F001039AB27B68E2
:105370001A800837BD4680BD00D00640684620F040
:1053800007018D462DE9F14183B000AF364B1B6814
:105390007B60364B1B79DBB21C460025002604F0EF
:1053A0000F03002B46D0314BDB79DBB2984604F07B
:1053B0000203002B14D004F02003002B0DD0B8F111
:1053C000000F0AD133460133DEB27B681B8843F0FD
:1053D00002039AB27B681A8002E045F004039DB292
:1053E00004F00803002B02D045F001039DB204F045
:1053F0000103002B02D045F002039DB204F0040328
:10540000002B02D045F008039DB27B685A682B46FA
:105410001A437B685A6024F02004002E05D07B6874
:10542000DB691846FFF77CFC04E07B68DB69184603
:10543000FFF72AFC04F02003002B02D07868FFF766
:1054400031FF7B681B8803F00103002B06D004F0BA
:105450008003002B02D07868FFF750FF0C37BD4661
:10546000BDE8F141854670476C03002000D006403E
:1054700080B485B000AF786039607B68FB60EFF383
:10548000138071B6F872144B1B78DBB20133DBB2B8
:10549000114A19461170012B02D1FA7A0F4B1A707A
:1054A000FB685A683B681A60FB6800225A600A4B26
:1054B0001B78DBB2013BDBB2074A19461170002BA7
:1054C00003D1064B187880F313880023184614374D
:1054D000BD465DF8047B70470C010020800B002066
:1054E00080B485B000AF78606B4BFB60FB68002236
:1054F0001A81FB6800221A82FB680022DA60FB68CE
:1055000000225A82FB6800221A83FB6800225A613B
:10551000FB687A68DA61614BFA681A60604BFA6876
:105520001A6060495F4B03F5815314331B6843F4E1
:10553000806201F5815314331A605A49594B03F5BF
:10554000815318331B6843F4007201F581531833FB
:105550001A60554A544B5B6823F0807323F4E06370
:1055600043F400735360504A4F4B9B6823F08073A1
:1055700023F4E06343F4007393604C4B702283F890
:105580001F234A4B494A126842F000421A60474BB7
:10559000702283F82023454B444A526842F00102AE
:1055A0005A60434B424AD278D2B222F00802D2B2B9
:1055B000DA703F4B3E4AD278D2B222F00402D2B225
:1055C000DA70FB6800221A80FB6800225A60384BB0
:1055D00000229A70364B00229A71354B00229A7243
:1055E000334B00225A71324B00225A73304B304AEF
:1055F000927AD2B2D2B222F01F02D2B242F00702A5
:10560000D2B2D2B29A722A4B294A1278D2B222F07E
:105610001F02D2B21A70264B82225A70244B244A9F
:10562000127CD2B262F07702D2B21A74204B204AB6
:10563000527CD2B262F03F02D2B25A741C4B1C4A66
:10564000D278D2B2D2B242F00802D2B2D2B2DA707A
:10565000174B174AD278D2B2D2B242F00402D2B279
:10566000D2B2DA70124B124AD278D2B242F0200291
:10567000D2B2DA700E4B0E4A9279D2B242F00F02D9
:10568000D2B29A710B4BFA685A63FB68184614370A
:10569000BD465DF8047B704774030020940300202E
:1056A00098030020007004400090044000E100E0F6
:1056B00000A006408004002080B487B000AFF860EE
:1056C000B9601346FB80FB687B61FB88002B01D12E
:1056D00084232EE07B691B8A002B01D0082328E05D
:1056E000EFF3138071B6F874154B1B78DBB20133FE
:1056F000DBB2134A19461170012B02D1FA7C114B0F
:105700001A707B69BA68DA607B69FA881A827B69E9
:1057100000221A810A4B1B78DBB2013BDBB2084A3C
:1057200019461170002B03D1064B187880F31388AB
:10573000002318461C37BD465DF8047B704700BF48
:105740000C010020800B002080B487B000AFF8600F
:10575000B9601346FB80FB687B61FB88002B01D19D
:10576000842342E07B691B8B002B01D008233CE0A3
:10577000EFF3138071B6F8741F4B1B78DBB2013363
:10578000DBB21D4A19461170012B02D1FA7C1B4B6A
:105790001A707B69BA685A617B69FA881A837B69D7
:1057A00000225A827B691B8843F001039AB27B690D
:1057B0001A80134B124AD278D2B262F07F02D2B270
:1057C000DA700F4B0E4A9279D2B29A710A4B1B785B
:1057D000DBB2013BDBB2084A19461170002B03D142
:1057E000064B187880F31388002318461C37BD46F3
:1057F0005DF8047B704700BF0C010020800B002087
:1058000000A0064090B583B000AF7860124BDB7902
:10581000DBB21C467B681B8A002B1AD07B68DB68D6
:10582000591C7A68D160E2B21A707B681B89013317
:105830009AB27B681A817B681A897B681B8A9A42B4
:1058400007D17B6800221A827B68DB691846FFF764
:10585000B7FA0C37BD4690BD00A0064080B582B0B7
:1058600000AF78607B685A8A7B681B8B9A421CD297
:10587000194A7B685B69581C796848611B78D37149
:105880007B685B8A01339AB27B685A827B685A8A4A
:105890007B681B8B9A421CD17B6800221A837B6831
:1058A000DB691846FFF7CAFA13E00B4B0A4AD278B5
:1058B000D2B202F07F02D2B2DA70074B064A927976
:1058C000D2B29A717B681B8823F001039AB27B687D
:1058D0001A800837BD4680BD00A00640684620F00B
:1058E00007018D462DE9F14183B000AF364B1B68AF
:1058F0007B60364B1B79DBB21C460025002604F08A
:105900000F03002B46D0314BDB79DBB2984604F015
:105910000203002B14D004F02003002B0DD0B8F1AB
:10592000000F0AD133460133DEB27B681B8843F097
:1059300002039AB27B681A8002E045F004039DB22C
:1059400004F00803002B02D045F001039DB204F0DF
:105950000103002B02D045F002039DB204F00403C2
:10596000002B02D045F008039DB27B685A682B4695
:105970001A437B685A6024F02004002E05D07B680F
:10598000DB691846FFF7EAFA04E07B68DB69184632
:10599000FFF798FA04F02003002B02D07868FFF795
:1059A00031FF7B681B8803F00103002B06D004F055
:1059B0008003002B02D07868FFF750FF0C37BD46FC
:1059C000BDE8F141854670479403002000A00640E1
:1059D00080B485B000AF786039607B68FB60EFF31E
:1059E000138071B6F872144B1B78DBB20133DBB253
:1059F000114A19461170012B02D1FA7A0F4B1A7015
:105A0000FB685A683B681A60FB6800225A600A4BC0
:105A10001B78DBB2013BDBB2074A19461170002B41
:105A200003D1064B187880F31388002318461437E7
:105A3000BD465DF8047B70470C010020800B002000
:105A400080B485B000AF78602F4BFB60FB687A684C
:105A50005A60FB6800221A70FB6801225A702B49B9
:105A60002A4B03F581531C331B6843F0006201F598
:105A700081531C331A602549244B03F58153183395
:105A80001B6843F4005201F5815318331A601F4913
:105A90001E4B03F581531C331B6843F0006201F574
:105AA00081531C331A601A4A194B1B6E23F0807302
:105AB00023F4E0631366164A154B5B6E23F0807384
:105AC00023F4E0635366134B124A126A22F0030276
:105AD0001A62104B4C229A600E4B0E4AD26822F08A
:105AE0001F0242F00402DA600A4B00221A62094BDC
:105AF00040225A62084BFA689A64FB6818461437C9
:105B0000BD465DF8047B70479C0300200070044094
:105B100000D0044000B003408004002080B483B073
:105B200000AF78607B6801225A70002318460C375A
:105B3000BD465DF8047B704780B483B000AF7860E9
:105B40007B6800225A70084B074A126A22F0400212
:105B50001A62054B1F221A60002318460C37BD46F7
:105B60005DF8047B704700BF00B0034080B483B091
:105B700000AF78607B685B78002B01D1072318E0C9
:105B80000F4B1B6A03F08003002B01D0082310E0A9
:105B90000B4B0B4A526A22F048025A62084B084AE1
:105BA000126A22F040021A62054B7A6892781A60F3
:105BB000002318460C37BD465DF8047B704700BFD4
:105BC00000B0034080B487B000AFF860B9601346FE
:105BD000FB71FB687B61FB685B78002B01D10723BD
:105BE0001FE0FB79012B02D8FB79002B01D1962312
:105BF00017E00F4B1B6A03F08003002B01D0082332
:105C00000FE07B69FA791A70BB681B78042B01D905
:105C1000822306E0BB681B78064AD25C7B699A70D7
:105C2000002318461C37BD465DF8047B704700BF53
:105C300000B00340CCDE000080B485B000AF7860D7
:105C400039603B68BB607B685B78002B01D1072320
:105C500016E00023FB730DE0FB7B5B00BA68134486
:105C60000A4AF97B043152F8212092B21A80FB7B58
:105C70000133FB737B681B78FA7B9A42ECD30023D9
:105C800018461437BD465DF8047B704700B00340EA
:105C900080B485B000AF7860094B1B6803F08003C7
:105CA000FB60FB68002B03D0054B1B69012300E060
:105CB000002318461437BD465DF8047B704700BFCB
:105CC00000B0034080B485B000AF78602E4BFB601D
:105CD000FB687A685A60FB6800221A702B492B4BCC
:105CE00003F5815310331B6843F0006201F58153C3
:105CF00010331A602549254B03F5815318331B686F
:105D000043F4806201F5815318331A601F491F4B19
:105D100003F5815310331B6843F0006201F5815392
:105D200010331A601A4A1A4B9B6923F0807323F4CC
:105D3000E0639361164A164BDB6923F0807323F40A
